{
  "address": "0x20E0c5F61124D184101a0A8d9afaeA69F5dAB907",
  "abi": [
    {
      "inputs": [],
      "stateMutability": "nonpayable",
      "type": "constructor"
    },
    {
      "anonymous": false,
      "inputs": [
        {
          "indexed": false,
          "internalType": "uint256",
          "name": "chargingPointIndex",
          "type": "uint256"
        },
        {
          "indexed": false,
          "internalType": "uint256",
          "name": "connectorIndex",
          "type": "uint256"
        },
        {
          "indexed": false,
          "internalType": "uint256",
          "name": "fee",
          "type": "uint256"
        },
        {
          "indexed": false,
          "internalType": "uint256",
          "name": "day",
          "type": "uint256"
        },
        {
          "indexed": false,
          "internalType": "bytes3",
          "name": "bookingSlot",
          "type": "bytes3"
        }
      ],
      "name": "BookingSubmited",
      "type": "event"
    },
    {
      "anonymous": false,
      "inputs": [
        {
          "indexed": false,
          "internalType": "uint256",
          "name": "index",
          "type": "uint256"
        },
        {
          "indexed": false,
          "internalType": "string",
          "name": "cid",
          "type": "string"
        },
        {
          "indexed": false,
          "internalType": "uint256",
          "name": "price",
          "type": "uint256"
        },
        {
          "indexed": false,
          "internalType": "uint256",
          "name": "amountStaked",
          "type": "uint256"
        }
      ],
      "name": "ChargingPointAdded",
      "type": "event"
    },
    {
      "anonymous": false,
      "inputs": [
        {
          "indexed": false,
          "internalType": "uint256",
          "name": "charginPointIndex",
          "type": "uint256"
        },
        {
          "indexed": false,
          "internalType": "uint256",
          "name": "connectorIndex",
          "type": "uint256"
        }
      ],
      "name": "ConnectorDesactivated",
      "type": "event"
    },
    {
      "anonymous": false,
      "inputs": [
        {
          "indexed": true,
          "internalType": "address",
          "name": "previousOwner",
          "type": "address"
        },
        {
          "indexed": true,
          "internalType": "address",
          "name": "newOwner",
          "type": "address"
        }
      ],
      "name": "OwnershipTransferred",
      "type": "event"
    },
    {
      "anonymous": false,
      "inputs": [
        {
          "indexed": false,
          "internalType": "address",
          "name": "providerAddr",
          "type": "address"
        }
      ],
      "name": "ProviderJoined",
      "type": "event"
    },
    {
      "anonymous": false,
      "inputs": [
        {
          "indexed": false,
          "internalType": "uint256",
          "name": "chargingPointId",
          "type": "uint256"
        },
        {
          "indexed": false,
          "internalType": "uint256",
          "name": "connectorIndex",
          "type": "uint256"
        },
        {
          "indexed": false,
          "internalType": "uint256",
          "name": "index",
          "type": "uint256"
        },
        {
          "indexed": false,
          "internalType": "string",
          "name": "cid",
          "type": "string"
        },
        {
          "indexed": false,
          "internalType": "uint256",
          "name": "price",
          "type": "uint256"
        }
      ],
      "name": "StationAdded",
      "type": "event"
    },
    {
      "anonymous": false,
      "inputs": [
        {
          "indexed": false,
          "internalType": "address",
          "name": "userAddr",
          "type": "address"
        }
      ],
      "name": "UserJoined",
      "type": "event"
    },
    {
      "inputs": [],
      "name": "ChargingPointIDs",
      "outputs": [
        {
          "internalType": "uint256",
          "name": "_value",
          "type": "uint256"
        }
      ],
      "stateMutability": "view",
      "type": "function"
    },
    {
      "inputs": [
        {
          "internalType": "uint256",
          "name": "",
          "type": "uint256"
        },
        {
          "internalType": "uint256",
          "name": "",
          "type": "uint256"
        }
      ],
      "name": "ChargingPointToStation",
      "outputs": [
        {
          "internalType": "uint256",
          "name": "",
          "type": "uint256"
        }
      ],
      "stateMutability": "view",
      "type": "function"
    },
    {
      "inputs": [
        {
          "internalType": "uint256",
          "name": "",
          "type": "uint256"
        }
      ],
      "name": "StationCounterInChargingPoint",
      "outputs": [
        {
          "internalType": "uint256",
          "name": "",
          "type": "uint256"
        }
      ],
      "stateMutability": "view",
      "type": "function"
    },
    {
      "inputs": [
        {
          "internalType": "address",
          "name": "tokenAddr",
          "type": "address"
        }
      ],
      "name": "addAcceptedPayment",
      "outputs": [],
      "stateMutability": "nonpayable",
      "type": "function"
    },
    {
      "inputs": [
        {
          "internalType": "uint256",
          "name": "_pricePerHour",
          "type": "uint256"
        },
        {
          "internalType": "string",
          "name": "cid",
          "type": "string"
        },
        {
          "internalType": "address",
          "name": "tokenAddr",
          "type": "address"
        },
        {
          "internalType": "uint256",
          "name": "nConnectors",
          "type": "uint256"
        }
      ],
      "name": "addChargingPoint",
      "outputs": [],
      "stateMutability": "nonpayable",
      "type": "function"
    },
    {
      "inputs": [
        {
          "internalType": "uint256",
          "name": "chargingPointId",
          "type": "uint256"
        },
        {
          "internalType": "uint256",
          "name": "connectorIndex",
          "type": "uint256"
        },
        {
          "internalType": "uint256",
          "name": "day",
          "type": "uint256"
        },
        {
          "internalType": "bytes3",
          "name": "time",
          "type": "bytes3"
        },
        {
          "internalType": "address",
          "name": "tokenAddr",
          "type": "address"
        }
      ],
      "name": "bookStation",
      "outputs": [],
      "stateMutability": "nonpayable",
      "type": "function"
    },
    {
      "inputs": [],
      "name": "bookingIDs",
      "outputs": [
        {
          "internalType": "uint256",
          "name": "_value",
          "type": "uint256"
        }
      ],
      "stateMutability": "view",
      "type": "function"
    },
    {
      "inputs": [
        {
          "internalType": "uint256",
          "name": "chargingPointIndex",
          "type": "uint256"
        },
        {
          "internalType": "uint256",
          "name": "connectorIndex",
          "type": "uint256"
        }
      ],
      "name": "desactivateConnector",
      "outputs": [],
      "stateMutability": "nonpayable",
      "type": "function"
    },
    {
      "inputs": [],
      "name": "getBlockTimestamp",
      "outputs": [
        {
          "internalType": "uint256",
          "name": "",
          "type": "uint256"
        }
      ],
      "stateMutability": "view",
      "type": "function"
    },
    {
      "inputs": [
        {
          "internalType": "uint256",
          "name": "index",
          "type": "uint256"
        }
      ],
      "name": "getStation",
      "outputs": [
        {
          "components": [
            {
              "internalType": "uint256",
              "name": "pricePerHour",
              "type": "uint256"
            },
            {
              "internalType": "string",
              "name": "location",
              "type": "string"
            },
            {
              "internalType": "address",
              "name": "owner",
              "type": "address"
            },
            {
              "internalType": "bytes3[8]",
              "name": "availability",
              "type": "bytes3[8]"
            },
            {
              "internalType": "bool",
              "name": "isActive",
              "type": "bool"
            }
          ],
          "internalType": "struct Station",
          "name": "station",
          "type": "tuple"
        }
      ],
      "stateMutability": "view",
      "type": "function"
    },
    {
      "inputs": [
        {
          "internalType": "address",
          "name": "",
          "type": "address"
        }
      ],
      "name": "isAcceptedPayment",
      "outputs": [
        {
          "internalType": "bool",
          "name": "",
          "type": "bool"
        }
      ],
      "stateMutability": "view",
      "type": "function"
    },
    {
      "inputs": [
        {
          "internalType": "address",
          "name": "",
          "type": "address"
        }
      ],
      "name": "isMember",
      "outputs": [
        {
          "internalType": "bool",
          "name": "",
          "type": "bool"
        }
      ],
      "stateMutability": "view",
      "type": "function"
    },
    {
      "inputs": [
        {
          "internalType": "address",
          "name": "",
          "type": "address"
        }
      ],
      "name": "isProvider",
      "outputs": [
        {
          "internalType": "bool",
          "name": "",
          "type": "bool"
        }
      ],
      "stateMutability": "view",
      "type": "function"
    },
    {
      "inputs": [],
      "name": "joinAsProvider",
      "outputs": [],
      "stateMutability": "nonpayable",
      "type": "function"
    },
    {
      "inputs": [],
      "name": "joinAsUser",
      "outputs": [],
      "stateMutability": "nonpayable",
      "type": "function"
    },
    {
      "inputs": [],
      "name": "owner",
      "outputs": [
        {
          "internalType": "address",
          "name": "",
          "type": "address"
        }
      ],
      "stateMutability": "view",
      "type": "function"
    },
    {
      "inputs": [],
      "name": "renounceOwnership",
      "outputs": [],
      "stateMutability": "nonpayable",
      "type": "function"
    },
    {
      "inputs": [
        {
          "internalType": "address",
          "name": "",
          "type": "address"
        },
        {
          "internalType": "address",
          "name": "",
          "type": "address"
        }
      ],
      "name": "stakes",
      "outputs": [
        {
          "internalType": "uint256",
          "name": "",
          "type": "uint256"
        }
      ],
      "stateMutability": "view",
      "type": "function"
    },
    {
      "inputs": [],
      "name": "stationIDs",
      "outputs": [
        {
          "internalType": "uint256",
          "name": "_value",
          "type": "uint256"
        }
      ],
      "stateMutability": "view",
      "type": "function"
    },
    {
      "inputs": [
        {
          "internalType": "uint256",
          "name": "",
          "type": "uint256"
        }
      ],
      "name": "station_time_lower_bound",
      "outputs": [
        {
          "internalType": "uint256",
          "name": "",
          "type": "uint256"
        }
      ],
      "stateMutability": "view",
      "type": "function"
    },
    {
      "inputs": [
        {
          "internalType": "uint256",
          "name": "",
          "type": "uint256"
        }
      ],
      "name": "stationsMap",
      "outputs": [
        {
          "internalType": "uint256",
          "name": "pricePerHour",
          "type": "uint256"
        },
        {
          "internalType": "string",
          "name": "location",
          "type": "string"
        },
        {
          "internalType": "address",
          "name": "owner",
          "type": "address"
        },
        {
          "internalType": "bool",
          "name": "isActive",
          "type": "bool"
        }
      ],
      "stateMutability": "view",
      "type": "function"
    },
    {
      "inputs": [
        {
          "internalType": "address",
          "name": "newOwner",
          "type": "address"
        }
      ],
      "name": "transferOwnership",
      "outputs": [],
      "stateMutability": "nonpayable",
      "type": "function"
    }
  ],
  "transactionHash": "0xda7175515dac2cbeef077d80a4b1856f1ab31f55edc08f7f55ea1a7b580b99d1",
  "args": [],
  "numDeployments": 1,
  "solcInputHash": "2005eaa33fba013f1a46218691f42705",
  "bytecode": "0x60806040526201518060095534801561001757600080fd5b506100213361002a565b42600a5561007a565b600080546001600160a01b038381166001600160a01b0319831681178455604051919092169283917f8be0079c531659141344cd1fd0a4f28419497f9722a3daafe3b4186f6b6457e09190a35050565b611a30806100896000396000f3fe608060405234801561001057600080fd5b50600436106101425760003560e01c80639590a542116100b8578063a4e47b661161007c578063a4e47b66146102e5578063b869813f14610310578063dad03ec014610330578063e32819c51461033a578063e569e5a61461034d578063f2fde38b1461035557600080fd5b80639590a542146102595780639ab30426146102615780639f50da311461028c578063a1403ec9146102af578063a230c524146102c257600080fd5b80636b074a071161010a5780636b074a07146101c7578063715018a6146101fa578063796b89b9146102025780638da5cb5b14610208578063903dfb601461022357806394ba53dc1461024657600080fd5b8063106e054d146101475780631e5c502e14610170578063449efb25146101885780634c428def1461019d57806365a6ec7e146101a7575b600080fd5b61015a6101553660046115cc565b610368565b60405161016791906117b9565b60405180910390f35b600b5461017a9081565b604051908152602001610167565b61019b610196366004611674565b6104b7565b005b600c5461017a9081565b61017a6101b53660046115cc565b60086020526000908152604090205481565b6101ea6101d5366004611560565b60026020526000908152604090205460ff1681565b6040519015158152602001610167565b61019b6105e5565b4261017a565b6000546040516001600160a01b039091168152602001610167565b6102366102313660046115cc565b6105f9565b604051610167949392919061186f565b61019b610254366004611695565b6106b7565b61019b610d4c565b61017a61026f366004611674565b600760209081526000928352604080842090915290825290205481565b6101ea61029a366004611560565b60066020526000908152604090205460ff1681565b61019b6102bd366004611560565b610d9e565b6101ea6102d0366004611560565b60016020526000908152604090205460ff1681565b61017a6102f336600461157a565b600560209081526000928352604080842090915290825290205481565b61017a61031e3660046115cc565b60046020526000908152604090205481565b600d5461017a9081565b61019b6103483660046115e4565b610dca565b61019b610fcd565b61019b610363366004611560565b611077565b6103706113bc565b600360008381526020019081526020016000206040518060a0016040529081600082015481526020016001820180546103a890611944565b80601f01602080910402602001604051908101604052809291908181526020018280546103d490611944565b80156104215780601f106103f657610100808354040283529160200191610421565b820191906000526020600020905b81548152906001019060200180831161040457829003601f168201915b505050918352505060028201546001600160a01b031660208201526040805161010081018083529190920191906003840190600890826000855b82829054906101000a900460e81b6001600160e81b0319168152602001906003019060208260020104928301926001038202915080841161045b575050509284525050506004919091015460ff16151560209091015292915050565b3360009081526002602052604090205460ff166104ef5760405162461bcd60e51b81526004016104e690611766565b60405180910390fd5b6000828152600760209081526040808320848452825280832054835260039091529020600201546001600160a01b0316331461057c5760405162461bcd60e51b815260206004820152602660248201527f43616c6c6572206973206e6f7420746865206f776e6572206f662074686520736044820152653a30ba34b7b760d11b60648201526084016104e6565b600082815260076020908152604080832084845282528083205483526003825291829020600401805460ff1916905581518481529081018390527f59c766dde985af4f6dd5f1d75d4933f9f24cb7760dfd0e80b6d25471b9b1282c910160405180910390a15050565b6105ed6110f0565b6105f7600061114a565b565b6003602052600090815260409020805460018201805491929161061b90611944565b80601f016020809104026020016040519081016040528092919081815260200182805461064790611944565b80156106945780601f1061066957610100808354040283529160200191610694565b820191906000526020600020905b81548152906001019060200180831161067757829003601f168201915b50505050600283015460049093015491926001600160a01b03169160ff16905084565b3360009081526001602052604090205460ff166107165760405162461bcd60e51b815260206004820152601e60248201527f546869732046656174757265206973206f6e6c7920666f72207573657273000060448201526064016104e6565b610724600c80546001019055565b6000858152600760209081526040808320878452909152902054600b5481111580156107505750600081115b61079c5760405162461bcd60e51b815260206004820152601d60248201527f696e64657820666f7220626f6f6b696e67206e6f7420616c6c6f77656400000060448201526064016104e6565b6001600160e81b031983166107f35760405162461bcd60e51b815260206004820152601c60248201527f6e6577207363686564756c652063616e6e6f7420626520656d7074790000000060448201526064016104e6565b6000600360008381526020019081526020016000206040518060a00160405290816000820154815260200160018201805461082d90611944565b80601f016020809104026020016040519081016040528092919081815260200182805461085990611944565b80156108a65780601f1061087b576101008083540402835291602001916108a6565b820191906000526020600020905b81548152906001019060200180831161088957829003601f168201915b505050918352505060028201546001600160a01b031660208201526040805161010081018083529190920191906003840190600890826000855b82829054906101000a900460e81b6001600160e81b031916815260200190600301906020826002010492830192600103820291508084116108e0575050509284525050506004919091015460ff161515602090910152608081015190915061098a5760405162461bcd60e51b815260206004820152601d60248201527f43757272656e742053746174696f6e206973206e6f742061637469766500000060448201526064016104e6565b80516001600160a01b03841660009081526006602052604090205460ff166109f45760405162461bcd60e51b815260206004820152601a60248201527f7468697320746f6b656e206973206e6f7420616363657074656400000000000060448201526064016104e6565b6040516323b872dd60e01b8152336004820152306024820152604481018290526001600160a01b038516906323b872dd90606401602060405180830381600087803b158015610a4257600080fd5b505af1158015610a56573d6000803e3d6000fd5b505050506040513d601f19601f82011682018060405250810190610a7a91906115ac565b50600083815260046020526040812054879190610a97904261192d565b9050600954811115610b73576000610aba6009548361119a90919063ffffffff16565b90508060078110610b0357506007610ad2828261119a565b600954610adf919061190e565b60008881526004602052604081208054909190610afd9084906118e2565b90915550505b60015b818160ff1611610b6f57610b1b6001866118e2565b9450600060e81b87606001518260ff1660088110610b4957634e487b7160e01b600052603260045260246000fd5b6001600160e81b0319909216602092909202015280610b678161199a565b915050610b06565b5050505b610b7e6007836119ba565b9150600084606001518360088110610ba657634e487b7160e01b600052603260045260246000fd5b6020020151881690506001600160e81b0319811615610bff5760405162461bcd60e51b81526020600482015260156024820152746e6577207363686564756c65206f7665726c61707360581b60448201526064016104e6565b84606001518360088110610c2357634e487b7160e01b600052603260045260246000fd5b6020020151881785606001518460088110610c4e57634e487b7160e01b600052603260045260246000fd5b6001600160e81b03199092166020928302919091015260008781526003825260409020865181558682015180518893610c8e9260018501929101906113fa565b5060408201516002820180546001600160a01b0319166001600160a01b039092169190911790556060820151610cca906003830190600861147e565b506080918201516004909101805460ff1916911515919091179055604080518d8152602081018d9052908101869052606081018590526001600160e81b03198a16918101919091527fcae132a109c390490a273e807eb7367bb9289551d5b0493bdfd9b3ff52d7dcf89060a00160405180910390a15050505050505050505050565b33600081815260016020818152604092839020805460ff191690921790915590519182527f4028b92b6812cf0ad64ad14283561bd81eaf1d9e718a6eabcfd40016f83bd1e991015b60405180910390a1565b610da66110f0565b6001600160a01b03166000908152600660205260409020805460ff19166001179055565b3360009081526002602052604090205460ff16610df95760405162461bcd60e51b81526004016104e690611766565b6001600160a01b03821660009081526006602052604090205460ff16610e615760405162461bcd60e51b815260206004820152601960248201527f7468697320746f6b656e206973206e6f7420616c6c6f7765640000000000000060448201526064016104e6565b6000610e7b82610e756007818a60186111ad565b906111ad565b6040516323b872dd60e01b8152336004820152306024820152604481018290529091506001600160a01b038416906323b872dd90606401602060405180830381600087803b158015610ecc57600080fd5b505af1158015610ee0573d6000803e3d6000fd5b505050506040513d601f19601f82011682018060405250810190610f0491906115ac565b506001600160a01b038316600090815260056020908152604080832033845290915281208054839290610f389084906118e2565b9091555050600d805460010190556000610f51600d5490565b905060005b83811015610f7c57610f6a888888856111b9565b80610f748161197f565b915050610f56565b507fc805ef5cc6135113c4e86465c528816ebb074fffeb26b77c8c146ef92cf26df3610fa7600b5490565b87878a86604051610fbc959493929190611841565b60405180910390a150505050505050565b3360009081526001602052604090205460ff1661102c5760405162461bcd60e51b815260206004820152601e60248201527f546869732046656174757265206973206f6e6c7920666f72207573657273000060448201526064016104e6565b33600081815260026020908152604091829020805460ff1916600117905590519182527f17e59d09e97aca8953388600495a0ba17a6c0caef6d4e7a595c1921ecaadc4559101610d94565b61107f6110f0565b6001600160a01b0381166110e45760405162461bcd60e51b815260206004820152602660248201527f4f776e61626c653a206e6577206f776e657220697320746865207a65726f206160448201526564647265737360d01b60648201526084016104e6565b6110ed8161114a565b50565b6000546001600160a01b031633146105f75760405162461bcd60e51b815260206004820181905260248201527f4f776e61626c653a2063616c6c6572206973206e6f7420746865206f776e657260448201526064016104e6565b600080546001600160a01b038381166001600160a01b0319831681178455604051919092169283917f8be0079c531659141344cd1fd0a4f28419497f9722a3daafe3b4186f6b6457e09190a35050565b60006111a682846118fa565b9392505050565b60006111a6828461190e565b6111c7600b80546001019055565b60006040518060a0016040528086815260200185858080601f0160208091040260200160405190810160405280939291908181526020018383808284376000920182905250938552505033602080850191909152604080516101008101825284815291820184905281810184905260608083018590526080830185905260a0830185905260c0830185905260e08301859052908501919091526001930192909252600a549293506004915061127b600b5490565b815260200190815260200160002081905550806003600061129b600b5490565b81526020808201929092526040016000208251815582820151805191926112ca926001850192909101906113fa565b5060408201516002820180546001600160a01b0319166001600160a01b039092169190911790556060820151611306906003830190600861147e565b50608091909101516004909101805460ff1916911515919091179055600082815260086020526040812080549161133c8361197f565b9091555050600b54600083815260076020908152604080832060088084528285208054865291845291842094909455918590525254600b547fce395db023d011bb1b5250a05ed9da88bd09cb0513699c20609ff4816508f5eb91849187878a6040516113ad969594939291906118a9565b60405180910390a15050505050565b6040518060a00160405280600081526020016060815260200160006001600160a01b031681526020016113ed611510565b8152600060209091015290565b82805461140690611944565b90600052602060002090601f016020900481019282611428576000855561146e565b82601f1061144157805160ff191683800117855561146e565b8280016001018555821561146e579182015b8281111561146e578251825591602001919060010190611453565b5061147a92915061152f565b5090565b60018301918390821561146e5791602002820160005b838211156114d457835183826101000a81548162ffffff021916908360e81c02179055509260200192600301602081600201049283019260010302611494565b80156115035782816101000a81549062ffffff02191690556003016020816002010492830192600103026114d4565b505061147a92915061152f565b6040518061010001604052806008906020820280368337509192915050565b5b8082111561147a5760008155600101611530565b80356001600160a01b038116811461155b57600080fd5b919050565b600060208284031215611571578081fd5b6111a682611544565b6000806040838503121561158c578081fd5b61159583611544565b91506115a360208401611544565b90509250929050565b6000602082840312156115bd578081fd5b815180151581146111a6578182fd5b6000602082840312156115dd578081fd5b5035919050565b6000806000806000608086880312156115fb578081fd5b85359450602086013567ffffffffffffffff80821115611619578283fd5b818801915088601f83011261162c578283fd5b81358181111561163a578384fd5b89602082850101111561164b578384fd5b60208301965080955050505061166360408701611544565b949793965091946060013592915050565b60008060408385031215611686578182fd5b50508035926020909101359150565b600080600080600060a086880312156116ac578081fd5b85359450602086013593506040860135925060608601356001600160e81b0319811681146116d8578182fd5b91506116e660808701611544565b90509295509295909350565b81835281816020850137506000828201602090810191909152601f909101601f19169091010190565b60008151808452815b8181101561174057602081850181015186830182015201611724565b818111156117515782602083870101525b50601f01601f19169290920160200192915050565b60208082526033908201527f546f206265636f6d6520612070726f766964657220796f75206e65656420746f6040820152721031329030903ab9b2b91037b3102537b6a2ab60691b606082015260800190565b60006020808352835181840152808401516101808060408601526117e16101a086018361171b565b915060018060a01b036040870151166060860152606086015160808601855b60088110156118275782516001600160e81b03191682529185019190850190600101611800565b505050608086015180151586830152925050949350505050565b85815260806020820152600061185b6080830186886116f2565b604083019490945250606001529392505050565b848152608060208201526000611888608083018661171b565b6001600160a01b039490941660408301525090151560609091015292915050565b86815285602082015284604082015260a0606082015260006118cf60a0830185876116f2565b9050826080830152979650505050505050565b600082198211156118f5576118f56119ce565b500190565b600082611909576119096119e4565b500490565b6000816000190483118215151615611928576119286119ce565b500290565b60008282101561193f5761193f6119ce565b500390565b600181811c9082168061195857607f821691505b6020821081141561197957634e487b7160e01b600052602260045260246000fd5b50919050565b6000600019821415611993576119936119ce565b5060010190565b600060ff821660ff8114156119b1576119b16119ce565b60010192915050565b6000826119c9576119c96119e4565b500690565b634e487b7160e01b600052601160045260246000fd5b634e487b7160e01b600052601260045260246000fdfea2646970667358221220da961e89dff30c580fdb4f45d1e47ab502c56fa806cb186fb4c928987555c5ba64736f6c63430008040033",
  "devdoc": {
    "kind": "dev",
    "methods": {
      "bookStation(uint256,uint256,uint256,bytes3,address)": {
        "details": "** @note   index : index of the station ( starts from 1 day : index of day starting from today. if today is 15 and we want for 16 we must write 1, 0 is not allowed time : pass in bytes 24 slots ( hrs ) i.e: 0010 0001 0000 0000 => we book for hours 3 and 8 parse into hex : 0x2100 => this is the input tokenAddr : token which is used to perform the transaction , must be an approved token*"
      },
      "getBlockTimestamp()": {
        "details": "dummy call for usage in the testing*"
      },
      "owner()": {
        "details": "Returns the address of the current owner."
      },
      "renounceOwnership()": {
        "details": "Leaves the contract without owner. It will not be possible to call `onlyOwner` functions anymore. Can only be called by the current owner. NOTE: Renouncing ownership will leave the contract without an owner, thereby removing any functionality that is only available to the owner."
      },
      "transferOwnership(address)": {
        "details": "Transfers ownership of the contract to a new account (`newOwner`). Can only be called by the current owner."
      }
    },
    "version": 1
  },
  "userdoc": {
    "kind": "user",
    "methods": {},
    "version": 1
  },
  "storageLayout": {
    "storage": [
      {
        "astId": 7,
        "contract": "contracts/JomEV.sol:JomEV",
        "label": "_owner",
        "offset": 0,
        "slot": "0",
        "type": "t_address"
      },
      {
        "astId": 1348,
        "contract": "contracts/JomEV.sol:JomEV",
        "label": "isMember",
        "offset": 0,
        "slot": "1",
        "type": "t_mapping(t_address,t_bool)"
      },
      {
        "astId": 1352,
        "contract": "contracts/JomEV.sol:JomEV",
        "label": "isProvider",
        "offset": 0,
        "slot": "2",
        "type": "t_mapping(t_address,t_bool)"
      },
      {
        "astId": 1357,
        "contract": "contracts/JomEV.sol:JomEV",
        "label": "stationsMap",
        "offset": 0,
        "slot": "3",
        "type": "t_mapping(t_uint256,t_struct(Station)1287_storage)"
      },
      {
        "astId": 1361,
        "contract": "contracts/JomEV.sol:JomEV",
        "label": "station_time_lower_bound",
        "offset": 0,
        "slot": "4",
        "type": "t_mapping(t_uint256,t_uint256)"
      },
      {
        "astId": 1367,
        "contract": "contracts/JomEV.sol:JomEV",
        "label": "stakes",
        "offset": 0,
        "slot": "5",
        "type": "t_mapping(t_address,t_mapping(t_address,t_uint256))"
      },
      {
        "astId": 1371,
        "contract": "contracts/JomEV.sol:JomEV",
        "label": "isAcceptedPayment",
        "offset": 0,
        "slot": "6",
        "type": "t_mapping(t_address,t_bool)"
      },
      {
        "astId": 1377,
        "contract": "contracts/JomEV.sol:JomEV",
        "label": "ChargingPointToStation",
        "offset": 0,
        "slot": "7",
        "type": "t_mapping(t_uint256,t_mapping(t_uint256,t_uint256))"
      },
      {
        "astId": 1381,
        "contract": "contracts/JomEV.sol:JomEV",
        "label": "StationCounterInChargingPoint",
        "offset": 0,
        "slot": "8",
        "type": "t_mapping(t_uint256,t_uint256)"
      },
      {
        "astId": 1384,
        "contract": "contracts/JomEV.sol:JomEV",
        "label": "TIMESTAMP_PER_DAY",
        "offset": 0,
        "slot": "9",
        "type": "t_uint256"
      },
      {
        "astId": 1386,
        "contract": "contracts/JomEV.sol:JomEV",
        "label": "contract_time_lower_bound",
        "offset": 0,
        "slot": "10",
        "type": "t_uint256"
      },
      {
        "astId": 1389,
        "contract": "contracts/JomEV.sol:JomEV",
        "label": "stationIDs",
        "offset": 0,
        "slot": "11",
        "type": "t_struct(Counter)829_storage"
      },
      {
        "astId": 1392,
        "contract": "contracts/JomEV.sol:JomEV",
        "label": "bookingIDs",
        "offset": 0,
        "slot": "12",
        "type": "t_struct(Counter)829_storage"
      },
      {
        "astId": 1395,
        "contract": "contracts/JomEV.sol:JomEV",
        "label": "ChargingPointIDs",
        "offset": 0,
        "slot": "13",
        "type": "t_struct(Counter)829_storage"
      }
    ],
    "types": {
      "t_address": {
        "encoding": "inplace",
        "label": "address",
        "numberOfBytes": "20"
      },
      "t_array(t_bytes3)8_storage": {
        "base": "t_bytes3",
        "encoding": "inplace",
        "label": "bytes3[8]",
        "numberOfBytes": "32"
      },
      "t_bool": {
        "encoding": "inplace",
        "label": "bool",
        "numberOfBytes": "1"
      },
      "t_bytes3": {
        "encoding": "inplace",
        "label": "bytes3",
        "numberOfBytes": "3"
      },
      "t_mapping(t_address,t_bool)": {
        "encoding": "mapping",
        "key": "t_address",
        "label": "mapping(address => bool)",
        "numberOfBytes": "32",
        "value": "t_bool"
      },
      "t_mapping(t_address,t_mapping(t_address,t_uint256))": {
        "encoding": "mapping",
        "key": "t_address",
        "label": "mapping(address => mapping(address => uint256))",
        "numberOfBytes": "32",
        "value": "t_mapping(t_address,t_uint256)"
      },
      "t_mapping(t_address,t_uint256)": {
        "encoding": "mapping",
        "key": "t_address",
        "label": "mapping(address => uint256)",
        "numberOfBytes": "32",
        "value": "t_uint256"
      },
      "t_mapping(t_uint256,t_mapping(t_uint256,t_uint256))": {
        "encoding": "mapping",
        "key": "t_uint256",
        "label": "mapping(uint256 => mapping(uint256 => uint256))",
        "numberOfBytes": "32",
        "value": "t_mapping(t_uint256,t_uint256)"
      },
      "t_mapping(t_uint256,t_struct(Station)1287_storage)": {
        "encoding": "mapping",
        "key": "t_uint256",
        "label": "mapping(uint256 => struct Station)",
        "numberOfBytes": "32",
        "value": "t_struct(Station)1287_storage"
      },
      "t_mapping(t_uint256,t_uint256)": {
        "encoding": "mapping",
        "key": "t_uint256",
        "label": "mapping(uint256 => uint256)",
        "numberOfBytes": "32",
        "value": "t_uint256"
      },
      "t_string_storage": {
        "encoding": "bytes",
        "label": "string",
        "numberOfBytes": "32"
      },
      "t_struct(Counter)829_storage": {
        "encoding": "inplace",
        "label": "struct Counters.Counter",
        "members": [
          {
            "astId": 828,
            "contract": "contracts/JomEV.sol:JomEV",
            "label": "_value",
            "offset": 0,
            "slot": "0",
            "type": "t_uint256"
          }
        ],
        "numberOfBytes": "32"
      },
      "t_struct(Station)1287_storage": {
        "encoding": "inplace",
        "label": "struct Station",
        "members": [
          {
            "astId": 1276,
            "contract": "contracts/JomEV.sol:JomEV",
            "label": "pricePerHour",
            "offset": 0,
            "slot": "0",
            "type": "t_uint256"
          },
          {
            "astId": 1278,
            "contract": "contracts/JomEV.sol:JomEV",
            "label": "location",
            "offset": 0,
            "slot": "1",
            "type": "t_string_storage"
          },
          {
            "astId": 1280,
            "contract": "contracts/JomEV.sol:JomEV",
            "label": "owner",
            "offset": 0,
            "slot": "2",
            "type": "t_address"
          },
          {
            "astId": 1284,
            "contract": "contracts/JomEV.sol:JomEV",
            "label": "availability",
            "offset": 0,
            "slot": "3",
            "type": "t_array(t_bytes3)8_storage"
          },
          {
            "astId": 1286,
            "contract": "contracts/JomEV.sol:JomEV",
            "label": "isActive",
            "offset": 0,
            "slot": "4",
            "type": "t_bool"
          }
        ],
        "numberOfBytes": "160"
      },
      "t_uint256": {
        "encoding": "inplace",
        "label": "uint256",
        "numberOfBytes": "32"
      }
    }
  }
}